{
  "contractName": "BinaryOption",
  "abi": [
    {
      "constant": true,
      "inputs": [
        {
          "name": "",
          "type": "uint256"
        }
      ],
      "name": "games",
      "outputs": [
        {
          "name": "gameId",
          "type": "uint256"
        },
        {
          "name": "startTime",
          "type": "uint256"
        },
        {
          "name": "endTime",
          "type": "uint256"
        },
        {
          "name": "result",
          "type": "uint256"
        },
        {
          "name": "upPoolAmount",
          "type": "uint256"
        },
        {
          "name": "downPoolAmount",
          "type": "uint256"
        },
        {
          "name": "upBettersCount",
          "type": "uint256"
        },
        {
          "name": "downBettersCount",
          "type": "uint256"
        }
      ],
      "payable": false,
      "stateMutability": "view",
      "type": "function"
    },
    {
      "constant": true,
      "inputs": [
        {
          "name": "",
          "type": "address"
        }
      ],
      "name": "gameBank",
      "outputs": [
        {
          "name": "",
          "type": "uint256"
        }
      ],
      "payable": false,
      "stateMutability": "view",
      "type": "function"
    },
    {
      "constant": true,
      "inputs": [],
      "name": "contractModifier",
      "outputs": [
        {
          "name": "",
          "type": "address"
        }
      ],
      "payable": false,
      "stateMutability": "view",
      "type": "function"
    },
    {
      "inputs": [],
      "payable": false,
      "stateMutability": "nonpayable",
      "type": "constructor"
    },
    {
      "payable": true,
      "stateMutability": "payable",
      "type": "fallback"
    },
    {
      "constant": false,
      "inputs": [],
      "name": "destroy",
      "outputs": [],
      "payable": false,
      "stateMutability": "nonpayable",
      "type": "function"
    },
    {
      "constant": false,
      "inputs": [
        {
          "name": "gameId",
          "type": "uint256"
        },
        {
          "name": "startTime",
          "type": "uint256"
        },
        {
          "name": "endTime",
          "type": "uint256"
        }
      ],
      "name": "addGame",
      "outputs": [
        {
          "name": "result",
          "type": "bool"
        }
      ],
      "payable": false,
      "stateMutability": "nonpayable",
      "type": "function"
    },
    {
      "constant": true,
      "inputs": [
        {
          "name": "gameId",
          "type": "uint256"
        }
      ],
      "name": "getGameStartTime",
      "outputs": [
        {
          "name": "",
          "type": "uint256"
        }
      ],
      "payable": false,
      "stateMutability": "view",
      "type": "function"
    },
    {
      "constant": true,
      "inputs": [
        {
          "name": "gameId",
          "type": "uint256"
        }
      ],
      "name": "getUpAmount",
      "outputs": [
        {
          "name": "",
          "type": "uint256"
        }
      ],
      "payable": false,
      "stateMutability": "view",
      "type": "function"
    },
    {
      "constant": true,
      "inputs": [
        {
          "name": "gameId",
          "type": "uint256"
        }
      ],
      "name": "getDownAmount",
      "outputs": [
        {
          "name": "",
          "type": "uint256"
        }
      ],
      "payable": false,
      "stateMutability": "view",
      "type": "function"
    },
    {
      "constant": true,
      "inputs": [
        {
          "name": "gameId",
          "type": "uint256"
        }
      ],
      "name": "getResult",
      "outputs": [
        {
          "name": "",
          "type": "uint256"
        }
      ],
      "payable": false,
      "stateMutability": "view",
      "type": "function"
    },
    {
      "constant": true,
      "inputs": [
        {
          "name": "gameId",
          "type": "uint256"
        },
        {
          "name": "add",
          "type": "address"
        }
      ],
      "name": "getBetterPlay",
      "outputs": [
        {
          "name": "_result",
          "type": "uint256"
        }
      ],
      "payable": false,
      "stateMutability": "view",
      "type": "function"
    },
    {
      "constant": true,
      "inputs": [
        {
          "name": "gameId",
          "type": "uint256"
        },
        {
          "name": "add",
          "type": "address"
        }
      ],
      "name": "getBetterInvested",
      "outputs": [
        {
          "name": "_result",
          "type": "uint256"
        }
      ],
      "payable": false,
      "stateMutability": "view",
      "type": "function"
    },
    {
      "constant": true,
      "inputs": [],
      "name": "getBalance",
      "outputs": [
        {
          "name": "_balance",
          "type": "uint256"
        }
      ],
      "payable": false,
      "stateMutability": "view",
      "type": "function"
    },
    {
      "constant": true,
      "inputs": [],
      "name": "getContractBalance",
      "outputs": [
        {
          "name": "_contractBalance",
          "type": "uint256"
        }
      ],
      "payable": false,
      "stateMutability": "view",
      "type": "function"
    },
    {
      "constant": false,
      "inputs": [
        {
          "name": "gameId",
          "type": "uint256"
        },
        {
          "name": "bet",
          "type": "uint256"
        }
      ],
      "name": "betGame",
      "outputs": [
        {
          "name": "result",
          "type": "bool"
        }
      ],
      "payable": true,
      "stateMutability": "payable",
      "type": "function"
    },
    {
      "constant": false,
      "inputs": [
        {
          "name": "gameId",
          "type": "uint256"
        },
        {
          "name": "result",
          "type": "uint256"
        }
      ],
      "name": "setGameResult",
      "outputs": [
        {
          "name": "",
          "type": "bool"
        }
      ],
      "payable": false,
      "stateMutability": "nonpayable",
      "type": "function"
    },
    {
      "constant": false,
      "inputs": [],
      "name": "playerWithdraw",
      "outputs": [
        {
          "name": "",
          "type": "bool"
        }
      ],
      "payable": false,
      "stateMutability": "nonpayable",
      "type": "function"
    }
  ],
  "bytecode": "0x60806040526005600055605f60015534801561001a57600080fd5b5033600560006101000a81548173ffffffffffffffffffffffffffffffffffffffff021916908373ffffffffffffffffffffffffffffffffffffffff16021790555061123f8061006b6000396000f3006080604052600436106100e6576000357c0100000000000000000000000000000000000000000000000000000000900463ffffffff168063117a5b90146100eb57806312065fe01461015d5780634423d654146101885780635c0d6a7a146101e95780636f9fb98a146102405780637596e0711461026b5780637b672b1d146102ac57806383197ef01461030357806385ddf7f41461031a57806388b8c4871461035c578063995e43391461038b578063b131d053146103cc578063b798df641461040d578063c0d27d1f1461044e578063e77c79131461049d578063f85b6d9e146104f6575b600080fd5b3480156100f757600080fd5b5061011660048036038101908080359060200190929190505050610557565b604051808981526020018881526020018781526020018681526020018581526020018481526020018381526020018281526020019850505050505050505060405180910390f35b34801561016957600080fd5b5061017261059f565b6040518082815260200191505060405180910390f35b34801561019457600080fd5b506101d360048036038101908080359060200190929190803573ffffffffffffffffffffffffffffffffffffffff1690602001909291905050506105e6565b6040518082815260200191505060405180910390f35b3480156101f557600080fd5b5061022a600480360381019080803573ffffffffffffffffffffffffffffffffffffffff169060200190929190505050610638565b6040518082815260200191505060405180910390f35b34801561024c57600080fd5b50610255610650565b6040518082815260200191505060405180910390f35b34801561027757600080fd5b506102966004803603810190808035906020019092919050505061066f565b6040518082815260200191505060405180910390f35b3480156102b857600080fd5b506102c16106a3565b604051808273ffffffffffffffffffffffffffffffffffffffff1673ffffffffffffffffffffffffffffffffffffffff16815260200191505060405180910390f35b34801561030f57600080fd5b506103186106c9565b005b6103426004803603810190808035906020019092919080359060200190929190505050610760565b604051808215151515815260200191505060405180910390f35b34801561036857600080fd5b5061037161091b565b604051808215151515815260200191505060405180910390f35b34801561039757600080fd5b506103b660048036038101908080359060200190929190505050610a53565b6040518082815260200191505060405180910390f35b3480156103d857600080fd5b506103f760048036038101908080359060200190929190505050610a87565b6040518082815260200191505060405180910390f35b34801561041957600080fd5b5061043860048036038101908080359060200190929190505050610abb565b6040518082815260200191505060405180910390f35b34801561045a57600080fd5b506104836004803603810190808035906020019092919080359060200190929190505050610aef565b604051808215151515815260200191505060405180910390f35b3480156104a957600080fd5b506104dc600480360381019080803590602001909291908035906020019092919080359060200190929190505050610ea2565b604051808215151515815260200191505060405180910390f35b34801561050257600080fd5b5061054160048036038101908080359060200190929190803573ffffffffffffffffffffffffffffffffffffffff169060200190929190505050610fe6565b6040518082815260200191505060405180910390f35b60036020528060005260406000206000915090508060000154908060010154908060020154908060030154908060040154908060050154908060060154908060070154905088565b6000600460003373ffffffffffffffffffffffffffffffffffffffff1673ffffffffffffffffffffffffffffffffffffffff16815260200190815260200160002054905090565b6000806000841115156105f857600080fd5b6106028484611038565b90506003600085815260200190815260200160002060080160008281526020019081526020016000206001015491505092915050565b60046020528060005260406000206000915090505481565b60003073ffffffffffffffffffffffffffffffffffffffff1631905090565b60008060008311151561068157600080fd5b6003600084815260200190815260200160002060040154905080915050919050565b600560009054906101000a900473ffffffffffffffffffffffffffffffffffffffff1681565b600560009054906101000a900473ffffffffffffffffffffffffffffffffffffffff1673ffffffffffffffffffffffffffffffffffffffff163373ffffffffffffffffffffffffffffffffffffffff1614151561072557600080fd5b600560009054906101000a900473ffffffffffffffffffffffffffffffffffffffff1673ffffffffffffffffffffffffffffffffffffffff16ff5b6000806000806000861180156107765750600085115b80156107825750600385105b151561078d57600080fd5b60003411151561079c57600080fd5b600560009054906101000a900473ffffffffffffffffffffffffffffffffffffffff1673ffffffffffffffffffffffffffffffffffffffff163373ffffffffffffffffffffffffffffffffffffffff16141515156107f957600080fd5b6003600087815260200190815260200160002092506000836003015414151561082157600080fd5b6108338360060154846007015461112b565b91508260080160008381526020019081526020016000209050338160000160006101000a81548173ffffffffffffffffffffffffffffffffffffffff021916908373ffffffffffffffffffffffffffffffffffffffff16021790555034816001018190555084816002018190555060018514156108d9576108b883600401543461112b565b8360040181905550826006016000815480929190600101919050555061090e565b600285141561090d576108f083600501543461112b565b836005018190555082600701600081548092919060010191905055505b5b6001935050505092915050565b600080600260009054906101000a900460ff161561093857600080fd5b6001600260006101000a81548160ff021916908315150217905550600460003373ffffffffffffffffffffffffffffffffffffffff1673ffffffffffffffffffffffffffffffffffffffff1681526020019081526020016000205490506000811115156109a457600080fd5b6000600460003373ffffffffffffffffffffffffffffffffffffffff1673ffffffffffffffffffffffffffffffffffffffff168152602001908152602001600020819055503373ffffffffffffffffffffffffffffffffffffffff166108fc829081150290604051600060405180830381858888f19350505050158015610a2f573d6000803e3d6000fd5b50600191506000600260006101000a81548160ff0219169083151502179055505090565b600080600083111515610a6557600080fd5b6003600084815260200190815260200160002060030154905080915050919050565b600080600083111515610a9957600080fd5b6003600084815260200190815260200160002060010154905080915050919050565b600080600083111515610acd57600080fd5b6003600084815260200190815260200160002060050154905080915050919050565b600080600080600080600080610b03611195565b600080600560009054906101000a900473ffffffffffffffffffffffffffffffffffffffff1673ffffffffffffffffffffffffffffffffffffffff163373ffffffffffffffffffffffffffffffffffffffff16141515610b6257600080fd5b60008d118015610b72575060008c115b8015610b7e575060048c105b1515610b8957600080fd5b600360008e8152602001908152602001600020995060008a60030154141515610bb157600080fd5b8b8a60030181905550600098506000975060018c1415610bde578960050154985089600401549750610bf7565b60028c1415610bf65789600401549850896005015497505b5b610c02896064611147565b9650610c108760005461115d565b9550610c7d60046000600560009054906101000a900473ffffffffffffffffffffffffffffffffffffffff1673ffffffffffffffffffffffffffffffffffffffff1673ffffffffffffffffffffffffffffffffffffffff168152602001908152602001600020548761112b565b60046000600560009054906101000a900473ffffffffffffffffffffffffffffffffffffffff1673ffffffffffffffffffffffffffffffffffffffff1673ffffffffffffffffffffffffffffffffffffffff16815260200190815260200160002081905550610cee8760015461115d565b9450600093505b610d078a600601548b6007015461112b565b841015610e8e57896008016000858152602001908152602001600020606060405190810160405290816000820160009054906101000a900473ffffffffffffffffffffffffffffffffffffffff1673ffffffffffffffffffffffffffffffffffffffff1673ffffffffffffffffffffffffffffffffffffffff1681526020016001820154815260200160028201548152505092508b8360400151148015610db2575060008360200151115b8015610dbe5750600085115b15610e8157610dda610dd484602001518761115d565b89611147565b9150610dea83602001518361112b565b9050610e3960046000856000015173ffffffffffffffffffffffffffffffffffffffff1673ffffffffffffffffffffffffffffffffffffffff168152602001908152602001600020548261112b565b60046000856000015173ffffffffffffffffffffffffffffffffffffffff1673ffffffffffffffffffffffffffffffffffffffff168152602001908152602001600020819055505b8380600101945050610cf5565b60019a505050505050505050505092915050565b6000610eac6111cd565b600560009054906101000a900473ffffffffffffffffffffffffffffffffffffffff1673ffffffffffffffffffffffffffffffffffffffff163373ffffffffffffffffffffffffffffffffffffffff16141515610f0857600080fd5b4284118015610f1657508383115b1515610f2157600080fd5b60008510151515610f3157600080fd5b6101006040519081016040528086815260200185815260200184815260200160008152602001600081526020016000815260200160008152602001600081525090508060036000878152602001908152602001600020600082015181600001556020820151816001015560408201518160020155606082015181600301556080820151816004015560a0820151816005015560c0820151816006015560e0820151816007015590505060019150509392505050565b600080600084111515610ff857600080fd5b6110028484611038565b90506003600085815260200190815260200160002060080160008281526020019081526020016000206002015491505092915050565b6000806000808511151561104b57600080fd5b6110816003600087815260200190815260200160002060060154600360008881526020019081526020016000206007015461112b565b9150600090505b81811015611123578373ffffffffffffffffffffffffffffffffffffffff1660036000878152602001908152602001600020600801600083815260200190815260200160002060000160009054906101000a900473ffffffffffffffffffffffffffffffffffffffff1673ffffffffffffffffffffffffffffffffffffffff16141561111657809250611123565b8080600101915050611088565b505092915050565b6000818301905082811015151561113e57fe5b80905092915050565b6000818381151561115457fe5b04905092915050565b600080831415611170576000905061118f565b818302905081838281151561118157fe5b0414151561118b57fe5b8090505b92915050565b606060405190810160405280600073ffffffffffffffffffffffffffffffffffffffff16815260200160008152602001600081525090565b61010060405190810160405280600081526020016000815260200160008152602001600081526020016000815260200160008152602001600081526020016000815250905600a165627a7a72305820dd683cfaebf24c1954532dd58ef3446e4083bfd59f7c21916f14bf7535cc09c70029",
  "source": "pragma solidity ^0.4.23;\n\n/**\n* @title SafeMath\n* @dev Math operations with safety checks that throw on error\n*/\nlibrary SafeMath {\n\n  /**\n  * @dev Multiplies two numbers, throws on overflow.\n  */\n  function mul(uint256 a, uint256 b) internal pure returns (uint256 c) {\n    // Gas optimization: this is cheaper than asserting 'a' not being zero, but the\n    // benefit is lost if 'b' is also tested.\n    // See: https://github.com/OpenZeppelin/openzeppelin-solidity/pull/522\n    if (a == 0) {\n      return 0;\n    }\n\n    c = a * b;\n    assert(c / a == b);\n    return c;\n  }\n\n  /**\n  * @dev Integer division of two numbers, truncating the quotient.\n  */\n  function div(uint256 a, uint256 b) internal pure returns (uint256) {\n    // assert(b > 0); // Solidity automatically throws when dividing by 0\n    // uint256 c = a / b;\n    // assert(a == b * c + a % b); // There is no case in which this doesn't hold\n    return a / b;\n  }\n\n  /**\n  * @dev Subtracts two numbers, throws on overflow (i.e. if subtrahend is greater than minuend).\n  */\n  function sub(uint256 a, uint256 b) internal pure returns (uint256) {\n    assert(b <= a);\n    return a - b;\n  }\n\n  /**\n  * @dev Adds two numbers, throws on overflow.\n  */\n  function add(uint256 a, uint256 b) internal pure returns (uint256 c) {\n    c = a + b;\n    assert(c >= a);\n    return c;\n  }\n}\n\ncontract BinaryOption {\n\n  /**\n  * Private variables\n  */\n  uint256 private developerShare = 5; // 开发者抽成 5%\n  uint256 private winnerShare = 95; // 剩余的95%全部是赢家瓜分\n  bool locked; // FOR MODIFIER\n\n  /**\n  * Storage\n  */\n  mapping (uint256 => Game) public games;\n  mapping (address => uint256) public gameBank;\n  address public contractModifier;\n  //address public developer;\n\n  /**\n  * Constructor\n  * Define contract modifier, developer address.\n  * Initialize values.\n  */\n  constructor() public {\n    contractModifier = msg.sender;\n    //developer = msg.sender;\n  }\n\n  /**\n  * Data structure\n  */\n  struct Game {\n    uint256 gameId;\n    uint256 startTime;\n    uint256 endTime;\n    uint256 result; // 0->NOT SET, 1->UP, 2->DOWN, 3->TIE\n    uint256 upPoolAmount;\n    uint256 downPoolAmount;\n    uint256 upBettersCount;\n    uint256 downBettersCount;\n    mapping(uint256 => Better) betters;\n  }\n\n  struct Better {\n    address add;\n    uint256 investedAmount;\n    uint256 bet; // 1->UP, 2->DOWN\n  }\n\n  /**\n  * Modifier\n  */\n  modifier onlyContractModifier() {\n    require(msg.sender == contractModifier);\n    _;\n  }\n\n  modifier noReentrancy() {\n    if(locked) revert();\n    locked = true;\n    _;\n    locked = false;\n  }\n\n  /**\n  * Events\n  */\n  //event test_value(uint256 indexed value1);\n\n  /**\n  * Public functions\n  */\n\n  // Fallback\n  function () public payable {\n    revert();\n  }\n\n  function destroy() public onlyContractModifier {\n    selfdestruct(contractModifier);\n  }\n\n  // Create games 创建游戏，gameId为当天日期，如20181228，startTime是开始时间，endTime为结束时间\n  // 开始时间必须大于now，结束时间必须大于开始时间\n  function addGame(uint256 gameId, uint256 startTime, uint256 endTime) public onlyContractModifier returns (bool result) {\n    require(startTime > now && endTime > startTime);\n    require(gameId >= 0);\n    Game memory _game = Game(gameId, startTime, endTime, 0, 0, 0, 0, 0);\n    games[gameId] = _game;\n    return true;\n  }\n  // 获取某场游戏的开始时间\n  function getGameStartTime(uint256 gameId) public constant returns(uint256) {\n    require(gameId > 0);\n    uint256 result = games[gameId].startTime;\n    return result;\n  }\n  // 获取某场游戏的看涨总额\n  function getUpAmount(uint256 gameId) public constant returns(uint256) {\n    require(gameId > 0);\n    uint256 result = games[gameId].upPoolAmount;\n    return result;\n  }\n  // 获取某场游戏的看跌总额\n  function getDownAmount(uint256 gameId) public constant returns(uint256) {\n    require(gameId > 0);\n    uint256 result = games[gameId].downPoolAmount;\n    return result;\n  }\n  // 获取某场游戏的结果\n  function getResult(uint256 gameId) public constant returns(uint256) {\n    require(gameId > 0);\n    uint256 result = games[gameId].result;\n    return result;\n  }\n  // 获取某场游戏某个玩家的下注 - 看涨或看跌\n  function getBetterPlay(uint256 gameId, address add) public view returns (uint256 _result) {\n    require(gameId > 0);\n    uint256 index = getBetterIndex(gameId, add);\n    _result = games[gameId].betters[index].bet;\n  }\n  // 获取某场游戏某个玩家的下注金额\n  function getBetterInvested(uint256 gameId, address add) public view returns (uint256 _result) {\n    require(gameId > 0);\n    uint256 index = getBetterIndex(gameId, add);\n    _result = games[gameId].betters[index].investedAmount;\n  }\n  // 获取玩家的余额\n  function getBalance() public view returns (uint256 _balance) {\n    _balance = gameBank[msg.sender];\n  }\n  // 获取本合约的余额\n  function getContractBalance() public view returns (uint256 _contractBalance) {\n    _contractBalance = address(this).balance;\n  }\n\n  // 获取某场游戏的详情\n/*\n  function getGameDetails(uint256 gameId) public constant returns (uint256[]) {\n    require(gameId > 0);\n    Game memory _game = games[gameId];\n\n    uint256[] memory data = new uint256[](8);\n    data[0] = _game.gameId;\n    data[1] = _game.startTime;\n    data[2] = _game.endTime;\n    data[3] = _game.result;\n    data[4] = _game.upPoolAmount;\n    data[5] = _game.downPoolAmount;\n    data[6] = _game.upBettersCount;\n    data[7] = _game.downBettersCount;\n\n    return data;\n  }\n*/\n\n  // 玩家下注游戏，， gameID为要下注的游戏id，即当日日期，bet为要下的注，1为看涨，2为看跌\n  function betGame(uint256 gameId, uint256 bet) public payable returns(bool result) {\n    require(gameId > 0 && bet > 0 && bet < 3);\n    require(msg.value > 0);\n    require(msg.sender != contractModifier);\n\n    Game storage _game = games[gameId];\n    require(_game.result == 0);\n\n    uint256 total = SafeMath.add(_game.upBettersCount, _game.downBettersCount);\n    Better storage _better = _game.betters[total];\n    _better.add = msg.sender;\n    _better.investedAmount = msg.value;\n    _better.bet = bet;\n\n    if(bet == 1) {\n      _game.upPoolAmount = SafeMath.add(_game.upPoolAmount, msg.value);\n      _game.upBettersCount++;\n    } else if(bet == 2) {\n      _game.downPoolAmount = SafeMath.add(_game.downPoolAmount, msg.value);\n      _game.downBettersCount++;\n    }\n\n    return true;\n  }\n\n  // Set game result and distribute prizes\n  // 紧限合约创建者使用，上报游戏结果。 该函数会合理计算并分配奖金。\n  function setGameResult(uint256 gameId, uint256 result) public onlyContractModifier returns(bool) {\n     require(gameId > 0 && result > 0 && result < 4);\n     Game storage _game = games[gameId];\n\n     require(_game.result == 0);\n     _game.result = result;\n\n     // Winners profit = losers invested\n     uint256 profit = 0;\n     uint256 winnersTotalInvested = 0;\n     if (result == 1){\n       profit = _game.downPoolAmount;\n       winnersTotalInvested = _game.upPoolAmount;\n     } else if (result == 2){\n       profit = _game.upPoolAmount;\n       winnersTotalInvested = _game.downPoolAmount;\n     }\n\n     uint256 onePercent = SafeMath.div(profit, 100);\n     uint256 developerProfit = SafeMath.mul(onePercent, developerShare);\n     gameBank[contractModifier] = SafeMath.add(gameBank[contractModifier], developerProfit);\n\n     uint256 winnersProfit = SafeMath.mul(onePercent, winnerShare);\n\n     for(uint256 i = 0; i < SafeMath.add(_game.upBettersCount, _game.downBettersCount); i++) {\n       Better memory better = _game.betters[i];\n\n       // Winner profit = (winner invest / all winners invested) * winners profit\n       if(better.bet == result && better.investedAmount > 0 && winnersProfit > 0){\n         uint256 _gain = SafeMath.div(SafeMath.mul(better.investedAmount, winnersProfit), winnersTotalInvested);\n         uint256 _balance = SafeMath.add(better.investedAmount, _gain);\n         gameBank[better.add] = SafeMath.add(gameBank[better.add], _balance);\n       }\n     }\n     return true;\n  }\n  // 玩家把自己的合约的余额转账到钱包地址\n  function playerWithdraw() external noReentrancy returns(bool) {\n    uint256 refund = gameBank[msg.sender];\n    require (refund > 0);\n    gameBank[msg.sender] = 0;\n\n    //TODO\n    msg.sender.transfer(refund);\n    //if(!msg.sender.call.gas(3000000).value(refund)) throw;\n    return true;\n  }\n\n  /**\n   * Private functions\n   */\n  function getBetterIndex(uint256 gameId, address add) private view returns (uint256 result) {\n    require(gameId > 0);\n    uint256 betterCount = SafeMath.add(games[gameId].upBettersCount, games[gameId].downBettersCount);\n    for(uint256 i = 0; i < betterCount; i++){\n      if(games[gameId].betters[i].add == add){\n        result = i;\n        break;\n      }\n    }\n  }\n}\n",
  "sourcePath": "/Users/guyunxiang/Codes/BO/contracts/BinaryOption.sol",
  "compiler": {
    "name": "solc",
    "version": "0.4.24-develop.2018.8.28+commit.3ba0cdec.mod.Emscripten.clang"
  },
  "schemaVersion": "2.0.1",
  "updatedAt": "2018-12-30T08:31:13.552Z"
}